{
  "_format": "hh-sol-artifact-1",
  "contractName": "Poseidon",
  "sourceName": "contracts/TheWord.sol",
  "abi": [
    {
      "inputs": [
        {
          "internalType": "uint256[6]",
          "name": "",
          "type": "uint256[6]"
        }
      ],
      "name": "poseidon",
      "outputs": [
        {
          "internalType": "uint256",
          "name": "",
          "type": "uint256"
        }
      ],
      "stateMutability": "pure",
      "type": "function"
    }
  ],
  "bytecode": "0x61011761003a600b82828239805160001a60731461002d57634e487b7160e01b600052600060045260246000fd5b30600052607381538281f3fe730000000000000000000000000000000000000000301460806040526004361060335760003560e01c8063f5b4a788146038575b600080fd5b60496043366004605b565b50600090565b60405190815260200160405180910390f35b600060c08284031215606c57600080fd5b82601f830112607a57600080fd5b60405160c0810181811067ffffffffffffffff8211171560aa57634e487b7160e01b600052604160045260246000fd5b6040528060c084018581111560be57600080fd5b845b8181101560d657803583526020928301920160c0565b50919594505050505056fea2646970667358221220fd434a5c515b49d81fd518f176aabf1973b571e2540d2a94b48f2c5143d1769a64736f6c63430008150033",
  "linkReferences": {},
  "deployedLinkReferences": {}
}