{
  "_format": "hh-sol-artifact-1",
  "contractName": "TheWord",
  "sourceName": "contracts/TheWord.sol",
  "abi": [
    {
      "inputs": [
        {
          "internalType": "address",
          "name": "_verifier",
          "type": "address"
        }
      ],
      "stateMutability": "nonpayable",
      "type": "constructor"
    },
    {
      "anonymous": false,
      "inputs": [
        {
          "indexed": true,
          "internalType": "uint256",
          "name": "round",
          "type": "uint256"
        },
        {
          "indexed": true,
          "internalType": "uint256",
          "name": "commitment",
          "type": "uint256"
        },
        {
          "indexed": true,
          "internalType": "uint256",
          "name": "prize",
          "type": "uint256"
        }
      ],
      "name": "NewRound",
      "type": "event"
    },
    {
      "anonymous": false,
      "inputs": [
        {
          "indexed": true,
          "internalType": "uint256",
          "name": "round",
          "type": "uint256"
        },
        {
          "indexed": true,
          "internalType": "address",
          "name": "shoutedBy",
          "type": "address"
        }
      ],
      "name": "Shouted",
      "type": "event"
    },
    {
      "inputs": [],
      "name": "burnLocation",
      "outputs": [
        {
          "internalType": "address payable",
          "name": "",
          "type": "address"
        }
      ],
      "stateMutability": "view",
      "type": "function"
    },
    {
      "inputs": [
        {
          "internalType": "uint256[6]",
          "name": "_felts",
          "type": "uint256[6]"
        }
      ],
      "name": "hashPhrase",
      "outputs": [
        {
          "internalType": "uint256",
          "name": "",
          "type": "uint256"
        }
      ],
      "stateMutability": "pure",
      "type": "function"
    },
    {
      "inputs": [
        {
          "internalType": "uint256",
          "name": "_commitment",
          "type": "uint256"
        },
        {
          "components": [
            {
              "internalType": "uint256[2]",
              "name": "a",
              "type": "uint256[2]"
            },
            {
              "internalType": "uint256[2][2]",
              "name": "b",
              "type": "uint256[2][2]"
            },
            {
              "internalType": "uint256[2]",
              "name": "c",
              "type": "uint256[2]"
            }
          ],
          "internalType": "struct TheWord.Groth16Proof",
          "name": "_proof",
          "type": "tuple"
        }
      ],
      "name": "newRound",
      "outputs": [],
      "stateMutability": "payable",
      "type": "function"
    },
    {
      "inputs": [],
      "name": "round",
      "outputs": [
        {
          "internalType": "uint256",
          "name": "",
          "type": "uint256"
        }
      ],
      "stateMutability": "view",
      "type": "function"
    },
    {
      "inputs": [
        {
          "internalType": "uint256",
          "name": "",
          "type": "uint256"
        }
      ],
      "name": "rounds",
      "outputs": [
        {
          "internalType": "uint256",
          "name": "commitment",
          "type": "uint256"
        },
        {
          "internalType": "uint256",
          "name": "prize",
          "type": "uint256"
        },
        {
          "internalType": "address",
          "name": "shoutedBy",
          "type": "address"
        },
        {
          "internalType": "bool",
          "name": "active",
          "type": "bool"
        }
      ],
      "stateMutability": "view",
      "type": "function"
    },
    {
      "inputs": [
        {
          "internalType": "string",
          "name": "_secret",
          "type": "string"
        }
      ],
      "name": "secretToFelts",
      "outputs": [
        {
          "internalType": "uint256[6]",
          "name": "felts",
          "type": "uint256[6]"
        }
      ],
      "stateMutability": "pure",
      "type": "function"
    },
    {
      "inputs": [
        {
          "internalType": "uint256",
          "name": "_round",
          "type": "uint256"
        },
        {
          "internalType": "string",
          "name": "_secret",
          "type": "string"
        },
        {
          "internalType": "address",
          "name": "_shoutedBy",
          "type": "address"
        }
      ],
      "name": "shout",
      "outputs": [],
      "stateMutability": "nonpayable",
      "type": "function"
    }
  ],
  "bytecode": "0x6080604052600180546001600160a01b031916905534801561002057600080fd5b50604051610b38380380610b3883398101604081905261003f91610064565b600080546001600160a01b0319166001600160a01b0392909216919091179055610094565b60006020828403121561007657600080fd5b81516001600160a01b038116811461008d57600080fd5b9392505050565b610a95806100a36000396000f3fe6080604052600436106100705760003560e01c80633203e6d61161004e5780633203e6d6146100e057806348fdb0d61461010d5780638c65c81f14610145578063e11080c5146101c757600080fd5b80630a0bb45a14610075578063146ca531146100a8578063228ed0e5146100be575b600080fd5b34801561008157600080fd5b50610095610090366004610727565b6101da565b6040519081526020015b60405180910390f35b3480156100b457600080fd5b5061009560025481565b3480156100ca57600080fd5b506100de6100d93660046107fc565b61025b565b005b3480156100ec57600080fd5b506101006100fb366004610867565b61037a565b60405161009f91906108a9565b34801561011957600080fd5b5060015461012d906001600160a01b031681565b6040516001600160a01b03909116815260200161009f565b34801561015157600080fd5b506101966101603660046108da565b6003602052600090815260409020805460018201546002909201549091906001600160a01b03811690600160a01b900460ff1684565b60405161009f949392919093845260208401929092526001600160a01b031660408301521515606082015260800190565b6100de6101d53660046108f3565b61053f565b604051631eb694f160e31b815260009073__$0cfc0ed5815f24a1f35001efb7db3444d8$__9063f5b4a788906102149085906004016108a9565b602060405180830381865af4158015610231573d6000803e3d6000fd5b505050506040513d601f19601f82011682018060405250810190610255919061092d565b92915050565b6000848152600360205260409020600201548490600160a01b900460ff166102c05760405162461bcd60e51b8152602060048201526013602482015272526f756e64206973206e6f742061637469766560681b60448201526064015b60405180910390fd5b60006102cc858561037a565b905060006102d9826101da565b60008881526003602052604090205490915081146103315760405162461bcd60e51b8152602060048201526015602482015274496e76616c6964207365637265742070687261736560581b60448201526064016102b7565b61033b8785610684565b6040516001600160a01b0385169088907fa3f5af0649e6e7869898fe3b42c44b586b180b41455787ab91ce5ad732ec1bff90600090a350505050505050565b610382610709565b600083838080601f016020809104026020016040519081016040528093929190818152602001838380828437600092019190915250508251929350505060b410156104225760405162461bcd60e51b815260206004820152602a60248201527f73656372657420746f6f206c6f6e673a206d757374206265203c3d20323030206044820152696368617261637465727360b01b60648201526084016102b7565b60005b600681101561053757600061043b82601f61095c565b9050600061044a836001610973565b61045590601f61095c565b60408051602080825281830190925291925060009190602082018180368337019050509050825b828110801561048b5750855181105b15610500578581815181106104a2576104a2610986565b01602001516001600160f81b031916826104bc868461099c565b6104c7906001610973565b815181106104d7576104d7610986565b60200101906001600160f81b031916908160001a905350806104f8816109af565b91505061047c565b5060208101518087866006811061051957610519610986565b60200201525083925061052f91508290506109af565b915050610425565b505092915050565b6000546040805160208101825284815281516343753b4d60e01b81526001600160a01b03909316926343753b4d926105859286929183019160c0840191906004016109c8565b602060405180830381865afa1580156105a2573d6000803e3d6000fd5b505050506040513d601f19601f820116820180604052508101906105c69190610a36565b6106025760405162461bcd60e51b815260206004820152600d60248201526c24b73b30b634b210383937b7b360991b60448201526064016102b7565b60028054906000610612836109af565b90915550506002805460009081526003602052604080822085905582548252808220346001909101819055835483528183208401805460ff60a01b1916600160a01b1790559254905185927f5aec57d81928b24d30b1a2aec0d23d693412c37d7ec106b5d8259413716bb1f491a45050565b60008281526003602052604090206002810180546001600160a81b0319166001600160a01b038416179055600101541561070557600180546000848152600360205260408082209093015492516001600160a01b039092169280156108fc02929091818181858888f19350505050158015610703573d6000803e3d6000fd5b505b5050565b6040518060c001604052806006906020820280368337509192915050565b600060c0828403121561073957600080fd5b82601f83011261074857600080fd5b60405160c0810181811067ffffffffffffffff8211171561077957634e487b7160e01b600052604160045260246000fd5b6040528060c084018581111561078e57600080fd5b845b818110156107a8578035835260209283019201610790565b509195945050505050565b60008083601f8401126107c557600080fd5b50813567ffffffffffffffff8111156107dd57600080fd5b6020830191508360208285010111156107f557600080fd5b9250929050565b6000806000806060858703121561081257600080fd5b84359350602085013567ffffffffffffffff81111561083057600080fd5b61083c878288016107b3565b90945092505060408501356001600160a01b038116811461085c57600080fd5b939692955090935050565b6000806020838503121561087a57600080fd5b823567ffffffffffffffff81111561089157600080fd5b61089d858286016107b3565b90969095509350505050565b60c08101818360005b60068110156108d15781518352602092830192909101906001016108b2565b50505092915050565b6000602082840312156108ec57600080fd5b5035919050565b60008082840361012081121561090857600080fd5b83359250610100601f198201121561091f57600080fd5b506020830190509250929050565b60006020828403121561093f57600080fd5b5051919050565b634e487b7160e01b600052601160045260246000fd5b808202811582820484141761025557610255610946565b8082018082111561025557610255610946565b634e487b7160e01b600052603260045260246000fd5b8181038181111561025557610255610946565b6000600182016109c1576109c1610946565b5060010190565b61012081016040808784378083018660005b60028110156109f7578382843791830191908301906001016109da565b505050808560c08501375061010082018360005b6001811015610a2a578151835260209283019290910190600101610a0b565b50505095945050505050565b600060208284031215610a4857600080fd5b81518015158114610a5857600080fd5b939250505056fea26469706673582212208bf27f16ebcff722d03c8d5f456fcdb34e7994dbae8cb21163d9ec415417e1df64736f6c63430008150033",
  "linkReferences": {
    "contracts/TheWord.sol": {
      "Poseidon": [
        {
          "length": 20,
          "start": 655
        }
      ]
    }
  },
  "deployedLinkReferences": {
    "contracts/TheWord.sol": {
      "Poseidon": [
        {
          "length": 20,
          "start": 492
        }
      ]
    }
  }
}