{"contracts/TheWord.sol":{"TheWord":{"abi":[{"inputs":[{"internalType":"address","name":"_verifier","type":"address"}],"stateMutability":"nonpayable","type":"constructor"},{"anonymous":false,"inputs":[{"indexed":false,"internalType":"uint256","name":"round","type":"uint256"},{"indexed":false,"internalType":"bytes32","name":"commitment","type":"bytes32"},{"indexed":false,"internalType":"uint256","name":"prize","type":"uint256"}],"name":"NewRound","type":"event"},{"anonymous":false,"inputs":[{"indexed":false,"internalType":"uint256","name":"round","type":"uint256"},{"indexed":false,"internalType":"address","name":"shoutedBy","type":"address"}],"name":"Shouted","type":"event"},{"inputs":[],"name":"burnLocation","outputs":[{"internalType":"address payable","name":"","type":"address"}],"stateMutability":"view","type":"function"},{"inputs":[{"internalType":"uint256[6]","name":"_felts","type":"uint256[6]"}],"name":"hashPhrase","outputs":[{"internalType":"uint256","name":"","type":"uint256"}],"stateMutability":"pure","type":"function"},{"inputs":[{"internalType":"bytes32","name":"_commitment","type":"bytes32"},{"components":[{"internalType":"uint256[2]","name":"a","type":"uint256[2]"},{"internalType":"uint256[2][2]","name":"b","type":"uint256[2][2]"},{"internalType":"uint256[2]","name":"c","type":"uint256[2]"}],"internalType":"struct TheWord.Groth16Proof","name":"_proof","type":"tuple"}],"name":"newRound","outputs":[],"stateMutability":"payable","type":"function"},{"inputs":[],"name":"round","outputs":[{"internalType":"uint256","name":"","type":"uint256"}],"stateMutability":"view","type":"function"},{"inputs":[{"internalType":"uint256","name":"","type":"uint256"}],"name":"rounds","outputs":[{"internalType":"bytes32","name":"commitment","type":"bytes32"},{"internalType":"uint256","name":"prize","type":"uint256"},{"internalType":"address","name":"shoutedBy","type":"address"},{"internalType":"bool","name":"active","type":"bool"}],"stateMutability":"view","type":"function"},{"inputs":[{"internalType":"string","name":"_secret","type":"string"}],"name":"secretToFelts","outputs":[{"internalType":"uint256[6]","name":"felts","type":"uint256[6]"}],"stateMutability":"pure","type":"function"},{"inputs":[{"internalType":"string","name":"_secret","type":"string"},{"internalType":"uint256","name":"_round","type":"uint256"}],"name":"shout","outputs":[],"stateMutability":"nonpayable","type":"function"}],"evm":{"bytecode":{"linkReferences":{"contracts/TheWord.sol":{"Poseidon":[{"length":20,"start":655}]}},"object":"6080604052600180546001600160a01b031916905534801561002057600080fd5b50604051610b22380380610b2283398101604081905261003f91610064565b600080546001600160a01b0319166001600160a01b0392909216919091179055610094565b60006020828403121561007657600080fd5b81516001600160a01b038116811461008d57600080fd5b9392505050565b610a7f806100a36000396000f3fe6080604052600436106100705760003560e01c806348fdb0d61161004e57806348fdb0d6146100eb5780638c65c81f14610123578063bf1e5eed146101a5578063d234d0f0146101ba57600080fd5b80630a0bb45a14610075578063146ca531146100a85780633203e6d6146100be575b600080fd5b34801561008157600080fd5b50610095610090366004610730565b6101da565b6040519081526020015b60405180910390f35b3480156100b457600080fd5b5061009560025481565b3480156100ca57600080fd5b506100de6100d9366004610805565b61025b565b60405161009f9190610847565b3480156100f757600080fd5b5060015461010b906001600160a01b031681565b6040516001600160a01b03909116815260200161009f565b34801561012f57600080fd5b5061017461013e366004610878565b6003602052600090815260409020805460018201546002909201549091906001600160a01b03811690600160a01b900460ff1684565b60405161009f949392919093845260208401929092526001600160a01b031660408301521515606082015260800190565b6101b86101b3366004610891565b610425565b005b3480156101c657600080fd5b506101b86101d53660046108cb565b610582565b604051631eb694f160e31b815260009073__$0cfc0ed5815f24a1f35001efb7db3444d8$__9063f5b4a78890610214908590600401610847565b602060405180830381865af4158015610231573d6000803e3d6000fd5b505050506040513d601f19601f820116820180604052508101906102559190610917565b92915050565b610263610712565b600083838080601f016020809104026020016040519081016040528093929190818152602001838380828437600092019190915250508251929350505060b410156103085760405162461bcd60e51b815260206004820152602a60248201527f73656372657420746f6f206c6f6e673a206d757374206265203c3d20323030206044820152696368617261637465727360b01b60648201526084015b60405180910390fd5b60005b600681101561041d57600061032182601f610946565b9050600061033083600161095d565b61033b90601f610946565b60408051602080825281830190925291925060009190602082018180368337019050509050825b82811080156103715750855181105b156103e65785818151811061038857610388610970565b01602001516001600160f81b031916826103a28684610986565b6103ad90600161095d565b815181106103bd576103bd610970565b60200101906001600160f81b031916908160001a905350806103de81610999565b915050610362565b506020810151808786600681106103ff576103ff610970565b6020020152508392506104159150829050610999565b91505061030b565b505092915050565b6000546040805160208101825284815281516343753b4d60e01b81526001600160a01b03909316926343753b4d9261046b9286929183019160c0840191906004016109b2565b602060405180830381865afa158015610488573d6000803e3d6000fd5b505050506040513d601f19601f820116820180604052508101906104ac9190610a20565b6104e85760405162461bcd60e51b815260206004820152600d60248201526c24b73b30b634b210383937b7b360991b60448201526064016102ff565b600280549060006104f883610999565b90915550506002805460009081526003602090815260408083208690558354835280832034600190910181905584548452928190208401805460ff60a01b1916600160a01b17905592548351908152908101859052918201527f8e0de108281cf6828c6ff426a600ae588543e94d99c4b51a75bd7b3a587bc0ca9060600160405180910390a15050565b6000818152600360205260409020600201548190600160a01b900460ff166105e25760405162461bcd60e51b8152602060048201526013602482015272526f756e64206973206e6f742061637469766560681b60448201526064016102ff565b60006105ee858561025b565b905060006105fb826101da565b60008581526003602052604090205490915081146106535760405162461bcd60e51b8152602060048201526015602482015274496e76616c6964207365637265742070687261736560581b60448201526064016102ff565b61065c8461069c565b604080518581523360208201527fa3f5af0649e6e7869898fe3b42c44b586b180b41455787ab91ce5ad732ec1bff910160405180910390a1505050505050565b600081815260036020526040902060028101805460ff60a01b19169055600101541561070f57600180546000838152600360205260408082209093015492516001600160a01b039092169280156108fc02929091818181858888f1935050505015801561070d573d6000803e3d6000fd5b505b50565b6040518060c001604052806006906020820280368337509192915050565b600060c0828403121561074257600080fd5b82601f83011261075157600080fd5b60405160c0810181811067ffffffffffffffff8211171561078257634e487b7160e01b600052604160045260246000fd5b6040528060c084018581111561079757600080fd5b845b818110156107b1578035835260209283019201610799565b509195945050505050565b60008083601f8401126107ce57600080fd5b50813567ffffffffffffffff8111156107e657600080fd5b6020830191508360208285010111156107fe57600080fd5b9250929050565b6000806020838503121561081857600080fd5b823567ffffffffffffffff81111561082f57600080fd5b61083b858286016107bc565b90969095509350505050565b60c08101818360005b600681101561086f578151835260209283019290910190600101610850565b50505092915050565b60006020828403121561088a57600080fd5b5035919050565b6000808284036101208112156108a657600080fd5b83359250610100601f19820112156108bd57600080fd5b506020830190509250929050565b6000806000604084860312156108e057600080fd5b833567ffffffffffffffff8111156108f757600080fd5b610903868287016107bc565b909790965060209590950135949350505050565b60006020828403121561092957600080fd5b5051919050565b634e487b7160e01b600052601160045260246000fd5b808202811582820484141761025557610255610930565b8082018082111561025557610255610930565b634e487b7160e01b600052603260045260246000fd5b8181038181111561025557610255610930565b6000600182016109ab576109ab610930565b5060010190565b61012081016040808784378083018660005b60028110156109e1578382843791830191908301906001016109c4565b505050808560c08501375061010082018360005b6001811015610a145781518352602092830192909101906001016109f5565b50505095945050505050565b600060208284031215610a3257600080fd5b81518015158114610a4257600080fd5b939250505056fea2646970667358221220f2999414d8aa6c9cda38767673deee1df9a588c60edf3b2ece7b9fd3033ea6f164736f6c63430008150033","opcodes":"PUSH1 0x80 PUSH1 0x40 MSTORE PUSH1 0x1 DUP1 SLOAD PUSH1 0x1 PUSH1 0x1 PUSH1 0xA0 SHL SUB NOT AND SWAP1 SSTORE CALLVALUE DUP1 ISZERO PUSH2 0x20 JUMPI PUSH1 0x0 DUP1 REVERT JUMPDEST POP PUSH1 0x40 MLOAD PUSH2 0xB22 CODESIZE SUB DUP1 PUSH2 0xB22 DUP4 CODECOPY DUP2 ADD PUSH1 0x40 DUP2 SWAP1 MSTORE PUSH2 0x3F SWAP2 PUSH2 0x64 JUMP JUMPDEST PUSH1 0x0 DUP1 SLOAD PUSH1 0x1 PUSH1 0x1 PUSH1 0xA0 SHL SUB NOT AND PUSH1 0x1 PUSH1 0x1 PUSH1 0xA0 SHL SUB SWAP3 SWAP1 SWAP3 AND SWAP2 SWAP1 SWAP2 OR SWAP1 SSTORE PUSH2 0x94 JUMP JUMPDEST PUSH1 0x0 PUSH1 0x20 DUP3 DUP5 SUB SLT ISZERO PUSH2 0x76 JUMPI PUSH1 0x0 DUP1 REVERT JUMPDEST DUP2 MLOAD PUSH1 0x1 PUSH1 0x1 PUSH1 0xA0 SHL SUB DUP2 AND DUP2 EQ PUSH2 0x8D JUMPI PUSH1 0x0 DUP1 REVERT JUMPDEST SWAP4 SWAP3 POP POP POP JUMP JUMPDEST PUSH2 0xA7F DUP1 PUSH2 0xA3 PUSH1 0x0 CODECOPY PUSH1 0x0 RETURN INVALID PUSH1 0x80 PUSH1 0x40 MSTORE PUSH1 0x4 CALLDATASIZE LT PUSH2 0x70 JUMPI PUSH1 0x0 CALLDATALOAD PUSH1 0xE0 SHR DUP1 PUSH4 0x48FDB0D6 GT PUSH2 0x4E JUMPI DUP1 PUSH4 0x48FDB0D6 EQ PUSH2 0xEB JUMPI DUP1 PUSH4 0x8C65C81F EQ PUSH2 0x123 JUMPI DUP1 PUSH4 0xBF1E5EED EQ PUSH2 0x1A5 JUMPI DUP1 PUSH4 0xD234D0F0 EQ PUSH2 0x1BA JUMPI PUSH1 0x0 DUP1 REVERT JUMPDEST DUP1 PUSH4 0xA0BB45A EQ PUSH2 0x75 JUMPI DUP1 PUSH4 0x146CA531 EQ PUSH2 0xA8 JUMPI DUP1 PUSH4 0x3203E6D6 EQ PUSH2 0xBE JUMPI JUMPDEST PUSH1 0x0 DUP1 REVERT JUMPDEST CALLVALUE DUP1 ISZERO PUSH2 0x81 JUMPI PUSH1 0x0 DUP1 REVERT JUMPDEST POP PUSH2 0x95 PUSH2 0x90 CALLDATASIZE PUSH1 0x4 PUSH2 0x730 JUMP JUMPDEST PUSH2 0x1DA JUMP JUMPDEST PUSH1 0x40 MLOAD SWAP1 DUP2 MSTORE PUSH1 0x20 ADD JUMPDEST PUSH1 0x40 MLOAD DUP1 SWAP2 SUB SWAP1 RETURN JUMPDEST CALLVALUE DUP1 ISZERO PUSH2 0xB4 JUMPI PUSH1 0x0 DUP1 REVERT JUMPDEST POP PUSH2 0x95 PUSH1 0x2 SLOAD DUP2 JUMP JUMPDEST CALLVALUE DUP1 ISZERO PUSH2 0xCA JUMPI PUSH1 0x0 DUP1 REVERT JUMPDEST POP PUSH2 0xDE PUSH2 0xD9 CALLDATASIZE PUSH1 0x4 PUSH2 0x805 JUMP JUMPDEST PUSH2 0x25B JUMP JUMPDEST PUSH1 0x40 MLOAD PUSH2 0x9F SWAP2 SWAP1 PUSH2 0x847 JUMP JUMPDEST CALLVALUE DUP1 ISZERO PUSH2 0xF7 JUMPI PUSH1 0x0 DUP1 REVERT JUMPDEST POP PUSH1 0x1 SLOAD PUSH2 0x10B SWAP1 PUSH1 0x1 PUSH1 0x1 PUSH1 0xA0 SHL SUB AND DUP2 JUMP JUMPDEST PUSH1 0x40 MLOAD PUSH1 0x1 PUSH1 0x1 PUSH1 0xA0 SHL SUB SWAP1 SWAP2 AND DUP2 MSTORE PUSH1 0x20 ADD PUSH2 0x9F JUMP JUMPDEST CALLVALUE DUP1 ISZERO PUSH2 0x12F JUMPI PUSH1 0x0 DUP1 REVERT JUMPDEST POP PUSH2 0x174 PUSH2 0x13E CALLDATASIZE PUSH1 0x4 PUSH2 0x878 JUMP JUMPDEST PUSH1 0x3 PUSH1 0x20 MSTORE PUSH1 0x0 SWAP1 DUP2 MSTORE PUSH1 0x40 SWAP1 KECCAK256 DUP1 SLOAD PUSH1 0x1 DUP3 ADD SLOAD PUSH1 0x2 SWAP1 SWAP3 ADD SLOAD SWAP1 SWAP2 SWAP1 PUSH1 0x1 PUSH1 0x1 PUSH1 0xA0 SHL SUB DUP2 AND SWAP1 PUSH1 0x1 PUSH1 0xA0 SHL SWAP1 DIV PUSH1 0xFF AND DUP5 JUMP JUMPDEST PUSH1 0x40 MLOAD PUSH2 0x9F SWAP5 SWAP4 SWAP3 SWAP2 SWAP1 SWAP4 DUP5 MSTORE PUSH1 0x20 DUP5 ADD SWAP3 SWAP1 SWAP3 MSTORE PUSH1 0x1 PUSH1 0x1 PUSH1 0xA0 SHL SUB AND PUSH1 0x40 DUP4 ADD MSTORE ISZERO ISZERO PUSH1 0x60 DUP3 ADD MSTORE PUSH1 0x80 ADD SWAP1 JUMP JUMPDEST PUSH2 0x1B8 PUSH2 0x1B3 CALLDATASIZE PUSH1 0x4 PUSH2 0x891 JUMP JUMPDEST PUSH2 0x425 JUMP JUMPDEST STOP JUMPDEST CALLVALUE DUP1 ISZERO PUSH2 0x1C6 JUMPI PUSH1 0x0 DUP1 REVERT JUMPDEST POP PUSH2 0x1B8 PUSH2 0x1D5 CALLDATASIZE PUSH1 0x4 PUSH2 0x8CB JUMP JUMPDEST PUSH2 0x582 JUMP JUMPDEST PUSH1 0x40 MLOAD PUSH4 0x1EB694F1 PUSH1 0xE3 SHL DUP2 MSTORE PUSH1 0x0 SWAP1 PUSH20 0x0 SWAP1 PUSH4 0xF5B4A788 SWAP1 PUSH2 0x214 SWAP1 DUP6 SWAP1 PUSH1 0x4 ADD PUSH2 0x847 JUMP JUMPDEST PUSH1 0x20 PUSH1 0x40 MLOAD DUP1 DUP4 SUB DUP2 DUP7 GAS DELEGATECALL ISZERO DUP1 ISZERO PUSH2 0x231 JUMPI RETURNDATASIZE PUSH1 0x0 DUP1 RETURNDATACOPY RETURNDATASIZE PUSH1 0x0 REVERT JUMPDEST POP POP POP POP PUSH1 0x40 MLOAD RETURNDATASIZE PUSH1 0x1F NOT PUSH1 0x1F DUP3 ADD AND DUP3 ADD DUP1 PUSH1 0x40 MSTORE POP DUP2 ADD SWAP1 PUSH2 0x255 SWAP2 SWAP1 PUSH2 0x917 JUMP JUMPDEST SWAP3 SWAP2 POP POP JUMP JUMPDEST PUSH2 0x263 PUSH2 0x712 JUMP JUMPDEST PUSH1 0x0 DUP4 DUP4 DUP1 DUP1 PUSH1 0x1F ADD PUSH1 0x20 DUP1 SWAP2 DIV MUL PUSH1 0x20 ADD PUSH1 0x40 MLOAD SWAP1 DUP2 ADD PUSH1 0x40 MSTORE DUP1 SWAP4 SWAP3 SWAP2 SWAP1 DUP2 DUP2 MSTORE PUSH1 0x20 ADD DUP4 DUP4 DUP1 DUP3 DUP5 CALLDATACOPY PUSH1 0x0 SWAP3 ADD SWAP2 SWAP1 SWAP2 MSTORE POP POP DUP3 MLOAD SWAP3 SWAP4 POP POP POP PUSH1 0xB4 LT ISZERO PUSH2 0x308 JUMPI PUSH1 0x40 MLOAD PUSH3 0x461BCD PUSH1 0xE5 SHL DUP2 MSTORE PUSH1 0x20 PUSH1 0x4 DUP3 ADD MSTORE PUSH1 0x2A PUSH1 0x24 DUP3 ADD MSTORE PUSH32 0x73656372657420746F6F206C6F6E673A206D757374206265203C3D2032303020 PUSH1 0x44 DUP3 ADD MSTORE PUSH10 0x63686172616374657273 PUSH1 0xB0 SHL PUSH1 0x64 DUP3 ADD MSTORE PUSH1 0x84 ADD JUMPDEST PUSH1 0x40 MLOAD DUP1 SWAP2 SUB SWAP1 REVERT JUMPDEST PUSH1 0x0 JUMPDEST PUSH1 0x6 DUP2 LT ISZERO PUSH2 0x41D JUMPI PUSH1 0x0 PUSH2 0x321 DUP3 PUSH1 0x1F PUSH2 0x946 JUMP JUMPDEST SWAP1 POP PUSH1 0x0 PUSH2 0x330 DUP4 PUSH1 0x1 PUSH2 0x95D JUMP JUMPDEST PUSH2 0x33B SWAP1 PUSH1 0x1F PUSH2 0x946 JUMP JUMPDEST PUSH1 0x40 DUP1 MLOAD PUSH1 0x20 DUP1 DUP3 MSTORE DUP2 DUP4 ADD SWAP1 SWAP3 MSTORE SWAP2 SWAP3 POP PUSH1 0x0 SWAP2 SWAP1 PUSH1 0x20 DUP3 ADD DUP2 DUP1 CALLDATASIZE DUP4 CALLDATACOPY ADD SWAP1 POP POP SWAP1 POP DUP3 JUMPDEST DUP3 DUP2 LT DUP1 ISZERO PUSH2 0x371 JUMPI POP DUP6 MLOAD DUP2 LT JUMPDEST ISZERO PUSH2 0x3E6 JUMPI DUP6 DUP2 DUP2 MLOAD DUP2 LT PUSH2 0x388 JUMPI PUSH2 0x388 PUSH2 0x970 JUMP JUMPDEST ADD PUSH1 0x20 ADD MLOAD PUSH1 0x1 PUSH1 0x1 PUSH1 0xF8 SHL SUB NOT AND DUP3 PUSH2 0x3A2 DUP7 DUP5 PUSH2 0x986 JUMP JUMPDEST PUSH2 0x3AD SWAP1 PUSH1 0x1 PUSH2 0x95D JUMP JUMPDEST DUP2 MLOAD DUP2 LT PUSH2 0x3BD JUMPI PUSH2 0x3BD PUSH2 0x970 JUMP JUMPDEST PUSH1 0x20 ADD ADD SWAP1 PUSH1 0x1 PUSH1 0x1 PUSH1 0xF8 SHL SUB NOT AND SWAP1 DUP2 PUSH1 0x0 BYTE SWAP1 MSTORE8 POP DUP1 PUSH2 0x3DE DUP2 PUSH2 0x999 JUMP JUMPDEST SWAP2 POP POP PUSH2 0x362 JUMP JUMPDEST POP PUSH1 0x20 DUP2 ADD MLOAD DUP1 DUP8 DUP7 PUSH1 0x6 DUP2 LT PUSH2 0x3FF JUMPI PUSH2 0x3FF PUSH2 0x970 JUMP JUMPDEST PUSH1 0x20 MUL ADD MSTORE POP DUP4 SWAP3 POP PUSH2 0x415 SWAP2 POP DUP3 SWAP1 POP PUSH2 0x999 JUMP JUMPDEST SWAP2 POP POP PUSH2 0x30B JUMP JUMPDEST POP POP SWAP3 SWAP2 POP POP JUMP JUMPDEST PUSH1 0x0 SLOAD PUSH1 0x40 DUP1 MLOAD PUSH1 0x20 DUP2 ADD DUP3 MSTORE DUP5 DUP2 MSTORE DUP2 MLOAD PUSH4 0x43753B4D PUSH1 0xE0 SHL DUP2 MSTORE PUSH1 0x1 PUSH1 0x1 PUSH1 0xA0 SHL SUB SWAP1 SWAP4 AND SWAP3 PUSH4 0x43753B4D SWAP3 PUSH2 0x46B SWAP3 DUP7 SWAP3 SWAP2 DUP4 ADD SWAP2 PUSH1 0xC0 DUP5 ADD SWAP2 SWAP1 PUSH1 0x4 ADD PUSH2 0x9B2 JUMP JUMPDEST PUSH1 0x20 PUSH1 0x40 MLOAD DUP1 DUP4 SUB DUP2 DUP7 GAS STATICCALL ISZERO DUP1 ISZERO PUSH2 0x488 JUMPI RETURNDATASIZE PUSH1 0x0 DUP1 RETURNDATACOPY RETURNDATASIZE PUSH1 0x0 REVERT JUMPDEST POP POP POP POP PUSH1 0x40 MLOAD RETURNDATASIZE PUSH1 0x1F NOT PUSH1 0x1F DUP3 ADD AND DUP3 ADD DUP1 PUSH1 0x40 MSTORE POP DUP2 ADD SWAP1 PUSH2 0x4AC SWAP2 SWAP1 PUSH2 0xA20 JUMP JUMPDEST PUSH2 0x4E8 JUMPI PUSH1 0x40 MLOAD PUSH3 0x461BCD PUSH1 0xE5 SHL DUP2 MSTORE PUSH1 0x20 PUSH1 0x4 DUP3 ADD MSTORE PUSH1 0xD PUSH1 0x24 DUP3 ADD MSTORE PUSH13 0x24B73B30B634B210383937B7B3 PUSH1 0x99 SHL PUSH1 0x44 DUP3 ADD MSTORE PUSH1 0x64 ADD PUSH2 0x2FF JUMP JUMPDEST PUSH1 0x2 DUP1 SLOAD SWAP1 PUSH1 0x0 PUSH2 0x4F8 DUP4 PUSH2 0x999 JUMP JUMPDEST SWAP1 SWAP2 SSTORE POP POP PUSH1 0x2 DUP1 SLOAD PUSH1 0x0 SWAP1 DUP2 MSTORE PUSH1 0x3 PUSH1 0x20 SWAP1 DUP2 MSTORE PUSH1 0x40 DUP1 DUP4 KECCAK256 DUP7 SWAP1 SSTORE DUP4 SLOAD DUP4 MSTORE DUP1 DUP4 KECCAK256 CALLVALUE PUSH1 0x1 SWAP1 SWAP2 ADD DUP2 SWAP1 SSTORE DUP5 SLOAD DUP5 MSTORE SWAP3 DUP2 SWAP1 KECCAK256 DUP5 ADD DUP1 SLOAD PUSH1 0xFF PUSH1 0xA0 SHL NOT AND PUSH1 0x1 PUSH1 0xA0 SHL OR SWAP1 SSTORE SWAP3 SLOAD DUP4 MLOAD SWAP1 DUP2 MSTORE SWAP1 DUP2 ADD DUP6 SWAP1 MSTORE SWAP2 DUP3 ADD MSTORE PUSH32 0x8E0DE108281CF6828C6FF426A600AE588543E94D99C4B51A75BD7B3A587BC0CA SWAP1 PUSH1 0x60 ADD PUSH1 0x40 MLOAD DUP1 SWAP2 SUB SWAP1 LOG1 POP POP JUMP JUMPDEST PUSH1 0x0 DUP2 DUP2 MSTORE PUSH1 0x3 PUSH1 0x20 MSTORE PUSH1 0x40 SWAP1 KECCAK256 PUSH1 0x2 ADD SLOAD DUP2 SWAP1 PUSH1 0x1 PUSH1 0xA0 SHL SWAP1 DIV PUSH1 0xFF AND PUSH2 0x5E2 JUMPI PUSH1 0x40 MLOAD PUSH3 0x461BCD PUSH1 0xE5 SHL DUP2 MSTORE PUSH1 0x20 PUSH1 0x4 DUP3 ADD MSTORE PUSH1 0x13 PUSH1 0x24 DUP3 ADD MSTORE PUSH19 0x526F756E64206973206E6F7420616374697665 PUSH1 0x68 SHL PUSH1 0x44 DUP3 ADD MSTORE PUSH1 0x64 ADD PUSH2 0x2FF JUMP JUMPDEST PUSH1 0x0 PUSH2 0x5EE DUP6 DUP6 PUSH2 0x25B JUMP JUMPDEST SWAP1 POP PUSH1 0x0 PUSH2 0x5FB DUP3 PUSH2 0x1DA JUMP JUMPDEST PUSH1 0x0 DUP6 DUP2 MSTORE PUSH1 0x3 PUSH1 0x20 MSTORE PUSH1 0x40 SWAP1 KECCAK256 SLOAD SWAP1 SWAP2 POP DUP2 EQ PUSH2 0x653 JUMPI PUSH1 0x40 MLOAD PUSH3 0x461BCD PUSH1 0xE5 SHL DUP2 MSTORE PUSH1 0x20 PUSH1 0x4 DUP3 ADD MSTORE PUSH1 0x15 PUSH1 0x24 DUP3 ADD MSTORE PUSH21 0x496E76616C69642073656372657420706872617365 PUSH1 0x58 SHL PUSH1 0x44 DUP3 ADD MSTORE PUSH1 0x64 ADD PUSH2 0x2FF JUMP JUMPDEST PUSH2 0x65C DUP5 PUSH2 0x69C JUMP JUMPDEST PUSH1 0x40 DUP1 MLOAD DUP6 DUP2 MSTORE CALLER PUSH1 0x20 DUP3 ADD MSTORE PUSH32 0xA3F5AF0649E6E7869898FE3B42C44B586B180B41455787AB91CE5AD732EC1BFF SWAP2 ADD PUSH1 0x40 MLOAD DUP1 SWAP2 SUB SWAP1 LOG1 POP POP POP POP POP POP JUMP JUMPDEST PUSH1 0x0 DUP2 DUP2 MSTORE PUSH1 0x3 PUSH1 0x20 MSTORE PUSH1 0x40 SWAP1 KECCAK256 PUSH1 0x2 DUP2 ADD DUP1 SLOAD PUSH1 0xFF PUSH1 0xA0 SHL NOT AND SWAP1 SSTORE PUSH1 0x1 ADD SLOAD ISZERO PUSH2 0x70F JUMPI PUSH1 0x1 DUP1 SLOAD PUSH1 0x0 DUP4 DUP2 MSTORE PUSH1 0x3 PUSH1 0x20 MSTORE PUSH1 0x40 DUP1 DUP3 KECCAK256 SWAP1 SWAP4 ADD SLOAD SWAP3 MLOAD PUSH1 0x1 PUSH1 0x1 PUSH1 0xA0 SHL SUB SWAP1 SWAP3 AND SWAP3 DUP1 ISZERO PUSH2 0x8FC MUL SWAP3 SWAP1 SWAP2 DUP2 DUP2 DUP2 DUP6 DUP9 DUP9 CALL SWAP4 POP POP POP POP ISZERO DUP1 ISZERO PUSH2 0x70D JUMPI RETURNDATASIZE PUSH1 0x0 DUP1 RETURNDATACOPY RETURNDATASIZE PUSH1 0x0 REVERT JUMPDEST POP JUMPDEST POP JUMP JUMPDEST PUSH1 0x40 MLOAD DUP1 PUSH1 0xC0 ADD PUSH1 0x40 MSTORE DUP1 PUSH1 0x6 SWAP1 PUSH1 0x20 DUP3 MUL DUP1 CALLDATASIZE DUP4 CALLDATACOPY POP SWAP2 SWAP3 SWAP2 POP POP JUMP JUMPDEST PUSH1 0x0 PUSH1 0xC0 DUP3 DUP5 SUB SLT ISZERO PUSH2 0x742 JUMPI PUSH1 0x0 DUP1 REVERT JUMPDEST DUP3 PUSH1 0x1F DUP4 ADD SLT PUSH2 0x751 JUMPI PUSH1 0x0 DUP1 REVERT JUMPDEST PUSH1 0x40 MLOAD PUSH1 0xC0 DUP2 ADD DUP2 DUP2 LT PUSH8 0xFFFFFFFFFFFFFFFF DUP3 GT OR ISZERO PUSH2 0x782 JUMPI PUSH4 0x4E487B71 PUSH1 0xE0 SHL PUSH1 0x0 MSTORE PUSH1 0x41 PUSH1 0x4 MSTORE PUSH1 0x24 PUSH1 0x0 REVERT JUMPDEST PUSH1 0x40 MSTORE DUP1 PUSH1 0xC0 DUP5 ADD DUP6 DUP2 GT ISZERO PUSH2 0x797 JUMPI PUSH1 0x0 DUP1 REVERT JUMPDEST DUP5 JUMPDEST DUP2 DUP2 LT ISZERO PUSH2 0x7B1 JUMPI DUP1 CALLDATALOAD DUP4 MSTORE PUSH1 0x20 SWAP3 DUP4 ADD SWAP3 ADD PUSH2 0x799 JUMP JUMPDEST POP SWAP2 SWAP6 SWAP5 POP POP POP POP POP JUMP JUMPDEST PUSH1 0x0 DUP1 DUP4 PUSH1 0x1F DUP5 ADD SLT PUSH2 0x7CE JUMPI PUSH1 0x0 DUP1 REVERT JUMPDEST POP DUP2 CALLDATALOAD PUSH8 0xFFFFFFFFFFFFFFFF DUP2 GT ISZERO PUSH2 0x7E6 JUMPI PUSH1 0x0 DUP1 REVERT JUMPDEST PUSH1 0x20 DUP4 ADD SWAP2 POP DUP4 PUSH1 0x20 DUP3 DUP6 ADD ADD GT ISZERO PUSH2 0x7FE JUMPI PUSH1 0x0 DUP1 REVERT JUMPDEST SWAP3 POP SWAP3 SWAP1 POP JUMP JUMPDEST PUSH1 0x0 DUP1 PUSH1 0x20 DUP4 DUP6 SUB SLT ISZERO PUSH2 0x818 JUMPI PUSH1 0x0 DUP1 REVERT JUMPDEST DUP3 CALLDATALOAD PUSH8 0xFFFFFFFFFFFFFFFF DUP2 GT ISZERO PUSH2 0x82F JUMPI PUSH1 0x0 DUP1 REVERT JUMPDEST PUSH2 0x83B DUP6 DUP3 DUP7 ADD PUSH2 0x7BC JUMP JUMPDEST SWAP1 SWAP7 SWAP1 SWAP6 POP SWAP4 POP POP POP POP JUMP JUMPDEST PUSH1 0xC0 DUP2 ADD DUP2 DUP4 PUSH1 0x0 JUMPDEST PUSH1 0x6 DUP2 LT ISZERO PUSH2 0x86F JUMPI DUP2 MLOAD DUP4 MSTORE PUSH1 0x20 SWAP3 DUP4 ADD SWAP3 SWAP1 SWAP2 ADD SWAP1 PUSH1 0x1 ADD PUSH2 0x850 JUMP JUMPDEST POP POP POP SWAP3 SWAP2 POP POP JUMP JUMPDEST PUSH1 0x0 PUSH1 0x20 DUP3 DUP5 SUB SLT ISZERO PUSH2 0x88A JUMPI PUSH1 0x0 DUP1 REVERT JUMPDEST POP CALLDATALOAD SWAP2 SWAP1 POP JUMP JUMPDEST PUSH1 0x0 DUP1 DUP3 DUP5 SUB PUSH2 0x120 DUP2 SLT ISZERO PUSH2 0x8A6 JUMPI PUSH1 0x0 DUP1 REVERT JUMPDEST DUP4 CALLDATALOAD SWAP3 POP PUSH2 0x100 PUSH1 0x1F NOT DUP3 ADD SLT ISZERO PUSH2 0x8BD JUMPI PUSH1 0x0 DUP1 REVERT JUMPDEST POP PUSH1 0x20 DUP4 ADD SWAP1 POP SWAP3 POP SWAP3 SWAP1 POP JUMP JUMPDEST PUSH1 0x0 DUP1 PUSH1 0x0 PUSH1 0x40 DUP5 DUP7 SUB SLT ISZERO PUSH2 0x8E0 JUMPI PUSH1 0x0 DUP1 REVERT JUMPDEST DUP4 CALLDATALOAD PUSH8 0xFFFFFFFFFFFFFFFF DUP2 GT ISZERO PUSH2 0x8F7 JUMPI PUSH1 0x0 DUP1 REVERT JUMPDEST PUSH2 0x903 DUP7 DUP3 DUP8 ADD PUSH2 0x7BC JUMP JUMPDEST SWAP1 SWAP8 SWAP1 SWAP7 POP PUSH1 0x20 SWAP6 SWAP1 SWAP6 ADD CALLDATALOAD SWAP5 SWAP4 POP POP POP POP JUMP JUMPDEST PUSH1 0x0 PUSH1 0x20 DUP3 DUP5 SUB SLT ISZERO PUSH2 0x929 JUMPI PUSH1 0x0 DUP1 REVERT JUMPDEST POP MLOAD SWAP2 SWAP1 POP JUMP JUMPDEST PUSH4 0x4E487B71 PUSH1 0xE0 SHL PUSH1 0x0 MSTORE PUSH1 0x11 PUSH1 0x4 MSTORE PUSH1 0x24 PUSH1 0x0 REVERT JUMPDEST DUP1 DUP3 MUL DUP2 ISZERO DUP3 DUP3 DIV DUP5 EQ OR PUSH2 0x255 JUMPI PUSH2 0x255 PUSH2 0x930 JUMP JUMPDEST DUP1 DUP3 ADD DUP1 DUP3 GT ISZERO PUSH2 0x255 JUMPI PUSH2 0x255 PUSH2 0x930 JUMP JUMPDEST PUSH4 0x4E487B71 PUSH1 0xE0 SHL PUSH1 0x0 MSTORE PUSH1 0x32 PUSH1 0x4 MSTORE PUSH1 0x24 PUSH1 0x0 REVERT JUMPDEST DUP2 DUP2 SUB DUP2 DUP2 GT ISZERO PUSH2 0x255 JUMPI PUSH2 0x255 PUSH2 0x930 JUMP JUMPDEST PUSH1 0x0 PUSH1 0x1 DUP3 ADD PUSH2 0x9AB JUMPI PUSH2 0x9AB PUSH2 0x930 JUMP JUMPDEST POP PUSH1 0x1 ADD SWAP1 JUMP JUMPDEST PUSH2 0x120 DUP2 ADD PUSH1 0x40 DUP1 DUP8 DUP5 CALLDATACOPY DUP1 DUP4 ADD DUP7 PUSH1 0x0 JUMPDEST PUSH1 0x2 DUP2 LT ISZERO PUSH2 0x9E1 JUMPI DUP4 DUP3 DUP5 CALLDATACOPY SWAP2 DUP4 ADD SWAP2 SWAP1 DUP4 ADD SWAP1 PUSH1 0x1 ADD PUSH2 0x9C4 JUMP JUMPDEST POP POP POP DUP1 DUP6 PUSH1 0xC0 DUP6 ADD CALLDATACOPY POP PUSH2 0x100 DUP3 ADD DUP4 PUSH1 0x0 JUMPDEST PUSH1 0x1 DUP2 LT ISZERO PUSH2 0xA14 JUMPI DUP2 MLOAD DUP4 MSTORE PUSH1 0x20 SWAP3 DUP4 ADD SWAP3 SWAP1 SWAP2 ADD SWAP1 PUSH1 0x1 ADD PUSH2 0x9F5 JUMP JUMPDEST POP POP POP SWAP6 SWAP5 POP POP POP POP POP JUMP JUMPDEST PUSH1 0x0 PUSH1 0x20 DUP3 DUP5 SUB SLT ISZERO PUSH2 0xA32 JUMPI PUSH1 0x0 DUP1 REVERT JUMPDEST DUP2 MLOAD DUP1 ISZERO ISZERO DUP2 EQ PUSH2 0xA42 JUMPI PUSH1 0x0 DUP1 REVERT JUMPDEST SWAP4 SWAP3 POP POP POP JUMP INVALID LOG2 PUSH5 0x6970667358 0x22 SLT KECCAK256 CALLCODE SWAP10 SWAP5 EQ 0xD8 0xAA PUSH13 0x9CDA38767673DEEE1DF9A588C6 0xE 0xDF EXTCODESIZE 0x2E 0xCE PUSH28 0x9FD3033EA6F164736F6C634300081500330000000000000000000000 "},"methodIdentifiers":{"burnLocation()":"48fdb0d6","hashPhrase(uint256[6])":"0a0bb45a","newRound(bytes32,(uint256[2],uint256[2][2],uint256[2]))":"bf1e5eed","round()":"146ca531","rounds(uint256)":"8c65c81f","secretToFelts(string)":"3203e6d6","shout(string,uint256)":"d234d0f0"}}}}}